:100000000C947D070C94A8070C94A8070C94A807DF
:100010000C94A8070C94A8070C94A8070C94A807A4
:100020000C946D3A0C94A8070C94A8070C94A8079C
:100030000C94A8070C94281D0C94A8070C94A807EE
:100040000C94A8070C94A8070C94A8070C94A80774
:100050000C94443A0C941A3A0C94A8070C94A807F0
:100060000C94A8070C94A8070C94A8070C94A80754
:100070000C94A8070C94A8070C94A8070C94A80744
:100080000C94A8070C94A8070C94A807040000007F
:100090000004040000000004000000000000000450
:1000A000000000000004000200000400040000043E
:1000B000070404000004040400000202000000021F
:1000C00004070004070704000404000004000202FF
:1000D00004040404040000040004040404040404EC
:1000E00000040002030400040400040004000004EF
:1000F0000004000000000000000001020102F00006
:10010000572F020001000000FD2B0300010000003A
:10011000092C0400010000000C2C05000100000067
:10012000512C06010001AD03DF170700010000009C
:10013000551808010001EF003918090001000000FE
:10014000F82E0A020101A803162F0B030103EC008D
:10015000F92E0C020102EA002B2F0D020002F00022
:10016000A02F0E0200029403A52F0F030003EC0042
:10017000183010020002EA006E1A11050005E500B1
:10018000241A120200029403282A13010001EF002E
:100190000A2914020002EA00371115020002940332
:1001A000C41016040004E1005F1117050005DC000F
:1001B000E11018010001EF00D62819080008D4004A
:1001C00062291A030003D10048291B02000294038C
:1001D00010261C020002EA00BA251D0400048C034C
:1001E00072261E010001EF00EE241F080008C9005E
:1001F000CF1220020002EA0000252104000396032A
:100200007512220300029903BA1423030002990312
:10021000CA14240400049003221325010001EF00F6
:100220006D1226030003C6009F1227050003C300BA
:10023000722A28040003C0004A2B290300029903F4
:10024000572A2A0400049003A72B2B010001EF007A
:10025000422B2C030003BD00A61F2D0300039B03AC
:100260001C1C2E060006B700961C2F0200029403E9
:100270005B2130050005B2001E1F31040004A203FB
:100280007A1F3202000294035B1F33040003AF00A5
:10029000F32034050005AA00942135010001EF0088
:1002A0000A2D360400038003B52D37050005A5008F
:1002B0002C20380400049003BA2C39030003C60034
:1002C000EC2C3A0300029903022E3B03000299032F
:1002D000932E3C0600069F00212E3D030002990349
:1002E000ED153E030002990309163F080008970028
:1002F0002516400600069F00931641050005920052
:10030000A615420600068C00022343030003D10019
:10031000442344010001EF00C63345020002EA0015
:100320002634460200029403A733470300029903D0
:10033000B636480400048C03F73549030003D100A6
:1003400076334A010001EF0032364B020002EA0028
:10035000EF374C0200029403D8354D010001EF0045
:100360005C354E020002EA00A3374F0200029403FC
:10037000B9355000010000000E3A510005000000A0
:100380000402070400000200020400070400000445
:100390000400000004040404070407040002040429
:1003A0000400040400040401070400040200000027
:1003B00000000000060002026740038003661D067D
:1003C000830365400389036414048C03631704905A
:1003D00003620A029403614002990360400396039A
:1003E0005F400299035E400299035D10039B035C2A
:1003F00011049E035B1104A2035A0D02A603590BBC
:1004000001AD03584001A803571204A903560B017C
:10041000AD03551002AE03541503B003004002B300
:1004200003530E02B503520901B703510600000041
:10043000000102030405060720002300260029000E
:100440000B47004400450080010C48004400450073
:1004500020011D88008000810080001C8A0080002F
:10046000810020001FB300B000B10080031EB40063
:10047000B000B10020030E98009000910080000FA2
:100480009A0090009100200078DA9D196B6FDB468E
:10049000F2AF6C0504772D6443A4444AF2211F6C2B
:1004A000D93D04AD13378A2F071C0A822657D2C2C2
:1004B0007C954BFA7185FFFBCDECEC8B9492021787
:1004C00020107777667676DE33FE73F2D08B224F7C
:1004D0009E782B455DC9C9C5649F6517ECEFFFDCAD
:1004E0006C7E64D1F9E27CC61E44D577A290B8FB3D
:1004F000F19E5DE9E58F2C3C0FE3F37016C4B32049
:100500008C26D3495697655AE540E4CF495A14756D
:1005100096763CA9452E5956F755F7FE5D36B958E3
:100520004DE1C6AE83AB92347B64700ADBDEF962C8
:10053000E901E4B901686AA97E44F5FE5DCF9ABE7F
:100540002892BE2184B543F8A3E7EDABA5090C3C86
:100550002274CB659774227B94B4EADAB492A5E84E
:1005600012732B1315BC5FDF0F0C66054FDB441EA7
:10057000FA2EAF9FABC945884FAB76620F1CBD14F6
:10058000F34564AE908D48E87372B19C39A82A2D6A
:10059000EA7D222ACBBD627B7231779434CB06820E
:1005A00096899343E4C8A94DDE0E890D64102D2D64
:1005B000702EF6A24B8BA4EEBB11C2535AF41CD77B
:1005C00039DFA57DD12576A34C5F92BC6FD30E2C6D
:1005D00040F119387A1CF4D9D5CD805636B83C8C08
:1005E0002DF0215F2C96AB99016E65A2EFE6E62314
:1005F0005FD8AFC87EC5F66B69BF7891BE5AA54D6E
:100600002EE2B9BD44841933425FB8ED42C8307F51
:100610003EA999B5052A9B7E1D46964120E5A0DCA2
:10062000332A5E37E285172301E669972652FC17C5
:100630006476E8C12BBA0405E71996E4B0252A8F41
:10064000ED28B2449BE7F28452B25730364743ABB1
:10065000E4D08F95043B475A5A388EE1B963C2E81B
:100660005F9D78E2C941EC0FEA85F3950F0F56BA0A
:100670002FF8B1BC983D4BBAD786936CE6034CE398
:1006800019A790F55152CAFDFB773F4128980F7189
:100690009F457700312499B44A9C3B6B93DD721DD2
:1006A0005AF564D67E64563CDA6F91DBCFD72A4B7D
:1006B00086A6C2B2324F8EAC67E6DDC09BC6391348
:1006C0002E136DD4B968CD27050405ECA0FA42724B
:1006D0008F68E81ED61D785BD6E0A7CD4989FAC79A
:1006E0004EA8B17B7657667DDA5ADB685F92232786
:1006F000679DDD44CBEB44C9C9C25C48E95A948785
:10070000132B3C3AE70F3DD873DD4C2ED6660554CB
:10071000F6CA96493F81056B790AF1B6CD798BF718
:1007200041F06D29188406E0B9151D3F8240A325CC
:10073000C0603AE1256FF7BCCA5E138C1AC0046C26
:100740005104490E75C98F62B34CCBC67700BDB654
:10075000917918BB817517B5E8B956C6ADD8EF7950
:100760008B8F90E81F18982277B9CA0CC053DA71A2
:100770002BA070319DEC04C46A70E98464C8B23661
:10078000238B994EF6E0CD8A4F10B25E2918700780
:100790005AF60D6A01FC703AD1812F91705F0216F2
:1007A00068E33A7E939CE37004862A30604E1D31E4
:1007B0000811C35259E762F79A80AE2DAD962B9778
:1007C000623A3D010778AABD6C4D68A4C3213CEE96
:1007D0002505D7416346800ABD977E2484A58A6398
:1007E0002023FC45F57249B6BE081D96AC77DD7333
:1007F000DA721F1DFCD3FA649E9ACF5394E28828C4
:10080000695B1A3F7F81CFCF79D5C1E359BDDBC189
:1008100085CAA96D5E8473139E9518AD36A3B9770A
:10082000D237B9D334150F87DEBB26029D91498C90
:1008300032FAC0DE80DBF5084E9950EF6257BCB249
:1008400000E3A4FF7FDA78E96C5C077DB782C265BC
:100850000F88079E3D7AA5C23C303C8C2A05CB41CF
:1008600053431819DFEF65A9D8101826D191309697
:10087000AB21D85816CBA5391FA5D9319D6804776F
:1008800044C86AE7284F7DA3A8434784B42476244C
:10089000916568089C8ACCDFA0E1097E20775A40E8
:1008A000468040917B628F496A3D3F5573D93B6AD0
:1008B000BF1C08228332AA062CB8D535B88205C6DB
:1008C000F4631D15154C11D778C5417918FC0A88B9
:1008D00069F072558840A53DD39F0A9F42D9F83EE2
:1008E00040002884F1DF302A1881EFF911907A81D5
:1008F000AA5E2CCD41290348312155FC45B300099E
:10090000D67ABC682906070464E4F1176511480526
:100910006CC3AB50B094DF398B771EBE0C08CE8B06
:1009200011DEE97C614E075110B7741484F8CBBD19
:10093000180628B1433915024B216B13F8CA5A8A9D
:1009400053A5CB11D158F3F1ED77CCC10AA82AFAFF
:100950005E7289D643A8D3B9255A2194AA7F124C36
:10096000601017055693D6F182B503506913AD9701
:10097000122BB379D6CBBA80012475F53210B50AA3
:10098000EF36FB5080068D686C9421BAEC090F009D
:10099000935839B8CEAF8A7853B73A2593F7AAB5AA
:1009A0003512FED20850895F00AC2DA5D12B7C20DA
:1009B000885A942E4EF9B1E7038B375369617F7BD8
:1009C00079BD496E2FFF8DF513168257F7DBE4EEE4
:1009D000C3C72D462CE8A1EFAEE2E9DD5504FF9731
:1009E00013EFB07B56879BD9F46E13C0C1E6D74F87
:1009F0009B5F929F3FDFFC86EE3253FFA693DBCDD9
:100A00003D40A55DC9F76910AE160D40DE7DBDA560
:100A1000EB426C293EDF6C6E3EFCEB26F9FAE1E31B
:100A2000F5A7AFA8B71037B7379F6193D8E0AD48A7
:100A30000BBCEC1A2EBBC6CBE0F4C3E5AFC9D5E5C1
:100A4000FD35768C315EB5FD72F9659B6CEF6FB745
:100A5000BFC1C1F606E9C76F5836F550C8A956435D
:100A600075F3BA3CC04FF58619C0804DE3FAEE72BB
:100A700036B9F8CF6CBAFA1DB8BCC2EF157D6FF06D
:100A80001B82805A5CE3020AAED5EF6F03FF8562DA
:100A9000584D0B82F97C0E64A7935446B3C5325768
:100AA00089BE2B78340BC207E04A63691E9490918B
:100AB000074C1C02EDA485A23611B9D60C531ADCE2
:100AC00051BEA40EF5B240437C65A6E0CB29AA6DC9
:100AD000D28A5575C7C022197A35834044D18729F7
:100AE000C362CF0701DF6420923560E27013854D49
:100AF00083DB4BAE12501BB05DDD3250D53FCC5A7C
:100B0000483CCDD5BEDA92E40780FAB70EA336741E
:100B1000337B60085A84B443E854B349BD1BD5B055
:100B20001A582228DA2555DAB4AB02BC220D9CF201
:100B30008A99F6C6E283616C682CC39AB405B360E7
:100B4000BC6DEB5615B1E6A0E5906764A786333F10
:100B5000A7F0DE9C753553EE8CCDB6F2429ACC7C74
:100B6000A02CC8CCF4C20D532819513162A0F43C1A
:100B700048D5CF6E0FC09095B4E490C9A88D328748
:100B800065FDC40D370C3B6D743B776CFB72DB89E4
:100B900053583E3AD7E59FBD7FEE3100026464763C
:100BA000D8D8985D6CA08D7387CBC1BE2E40B28320
:100BB0006834E2221802800AFAC6BD49526B6E20E0
:100BC00006258847054BF6DBF405ED7465044AED10
:100BD000F22D14CBE99E33E8A32061188501C95B8F
:100BE00021D19A245480795F601F07C8985F990EBD
:100BF0005DCAF0F913474D606AFD36C2216D736519
:100C0000EC1A1ABBC55B14BF2A39187CB5BBA27E8F
:100C1000A69AE5235879CAE839E85ECAF517A3030E
:100C2000B07B3AC096D43F105543999DE635EAA86B
:100C3000424EDDF64245386BFD4D5BEF419825B0E5
:100C40009EE2DB76901A814B103647C7C5D9D8672C
:100C5000AE1F85C68A9E05D7A0A8410D68C9D8B029
:100C60006C2DC09174D8B3280AC81819D01B0C5623
:100C700028073A4C2BA1EF60609AD98217920E1583
:100C8000030821CABE347BC639902B333C516D1CFE
:100C900010537EAB62903F70DC6A47EEEA9AED52E9
:100CA000F53A7A1976AD5F7C93429101A01A17D17B
:100CB00090E78B92076242B2945C75E1F795EC1B6A
:100CC0004C989C9C5A45529C9D7E4DBBEC90D77B8A
:100CD00092E20FD448A9E92D341A7DF50884312217
:100CE000D050D0DB97EE002C937C0442868448875A
:100CF0001E0CA9183A55A9F5EBE62F14B0EAAA8004
:100D000018F70404D287C2842EFB7CEA6599AE10E2
:100D100068263BEA892FD827089E90A51E30A9EFA8
:100D20007026227FA0DA410D9C6D1CD563E89C06DD
:100D30001D123BCB0A2204994C06C778845518042F
:100D40007F355AFC78B9F9856652662AA38A2994B8
:100D50006691B6984EB0783C5131A00AC9E071C690
:100D6000A52330B913D64990AD8EE64098AE20AB9E
:100D7000CF835514A9ECA717B14A7FB48823650F18
:100D8000B088E3257CCFDFDE545DDF40B8E0346A15
:100D9000379DE760BEA1DC3C39D558ACE76E623EBA
:100DA000C048BDB692A913AA1BCFD4DC5AF50FAE2A
:100DB0004C5BD9E923E42D3D1A51859C9AA0E09E15
:100DC00051A8AA8E21A024B65F016C35FC52DDEA41
:100DD000F7B8D618FA2371B79F856B37B69260F9CA
:100DE000760AB55ABBA9CF80F2A1860E6F7F7C87A9
:100DF0003F5402E1046E909218317B8DAC5A9358A7
:100E0000D6919B5578A076684185F73982E2D0C5A6
:100E100009848DCB162D93D09B60E85799C6A4CF3B
:100E2000323541C9501B400DEEF28778AB95B26D5B
:100E3000703E2891A0DFF0EB7F89F9B4CAF868040E
:100E40007286A5858F3368C25D47AAFB68536553D8
:100E500037E7937CE85578CE69D000550A787462FC
:100E6000F287A4A79D6109265DE4339391D372981C
:100E70009F6AF18E94E1B7F19E56CE307DFB3DD551
:100E80005F6971A1CAC8B65375DD2AA0A2523AD3D0
:100E9000937DA97FE41F64610BD7258D5A281A35ED
:100EA0004171BA9E8DDC7DA8CF93BED9530C272506
:100EB000875E6375FC006CA9C83303BF5972C69E78
:100EC000A5B6733B391DF51C197B071A6532FA5319
:100ED00041EF7B7904D146FF7110BA89A7D9791007
:100EE0009ECFCE826071B64F97CB7CB65CCF266F1B
:100EF000FF03326A85706E0A000011241FBECFEF17
:100F0000D0E4DEBFCDBF14BE0FB6F894A895809193
:100F10006000886180936000109260000FBE11E055
:100F2000A0E0B1E0ECE8F6E700E00BBF02C00790FC
:100F30000D92AA32B107D9F722E0AAE2B1E001C0CE
:100F40001D92A739B207E1F70E94591E0C94443B49
:100F50000C940000CF93DF93CDB7DEB76A970FB63E
:100F6000F894DEBF0FBECDBF0E94461E6B017C0110
:100F70009E012F5F3F4F1901AE01475F5F4F5F87B3
:100F80004E8780912601882309F42DC60E94461EB3
:100F9000C61AD70AE80AF90AF8948091260188232C
:100FA00051F08FEF8093260178940000F89480919F
:100FB00026018111F9CF78940E94461EA70196015F
:100FC000260F371F481F591F2C8B3D8B4E8B5F8B75
:100FD00081E08093260180914C01882309F43EC072
:100FE00010924C018FEF89836EEE74E2C1010E9472
:100FF00084188C01892B91F1D80156968C9182FF2F
:10100000F3CF0E94461EF894F80137892689422FB3
:101010004B7F468B78949F938F937F936F931F9210
:101020003F9321701F922F9389811F928F932FEEF0
:1010300033E03F932F930E9465316DB77EB7645FB5
:101040007F4F0FB6F8947EBF0FBE6DBF6EEE74E299
:10105000C1010E9484188C01892B71F680914D0189
:101060008823F9F010924D018FEF898360E075E2DB
:10107000C1010E948418FC01892B99F0958D868D01
:101080009813F4CFF894858D968D891709F4A8C626
:10109000789460E075E2C1010E948418FC01892BFC
:1010A00069F7809149018823F9F0109249018FEF87
:1010B00089830BED13E06BE57FE1C1010E94841889
:1010C000009791F0DC0158962C912F3FA1F7F894EE
:1010D000FC012685211151C578946BE57FE1C101A2
:1010E0000E948418009771F780914A018823D9F1F2
:1010F00010924A018FEF898306ED13E064E971E2F3
:10110000C1010E948418009771F1DC011E962C9198
:101110001E9723FFF3CFF894FC012685277F2687AF
:1011200078949C01265E3F4F3F932F9350968C916D
:101130008695869586951F928F9389811F928F93AE
:101140001F930F930E946531EDB7FEB738960FB627
:10115000F894FEBF0FBEEDBF64E971E2C1010E94C9
:101160008418009791F680915601882309F446C0AF
:10117000109256018FEF89830CEC13E06CEE7CE249
:10118000C1010E948418FC01892BC1F1848D80FF6C
:10119000F5CFF894948125813681478154896589FA
:1011A0007689A789B08DF18CE28CD38C848D8E7F6B
:1011B000848F7894DF92EF92FF92BF93AF937F93E7
:1011C0006F935F934F933F932F939F9389811F92C8
:1011D0008F931F930F930E9465312DB73EB7205F09
:1011E0003F4F0FB6F8943EBF0FBE2DBF6CEE7CE2B2
:1011F000C1010E948418FC01892B41F680914B01AA
:10120000882309F450C010924B018FEF8B87AE01F9
:10121000455F5F4F2A0164E473E2C2010E948418B3
:101220005C01892B09F43FC0D50159968C915997DF
:1012300080FFF1CFF894F5016480758086809780F7
:10124000818D8E7F818F789458968C91813009F4AE
:1012500001C308F4E1C2823009F4A1C28330D9F697
:10126000CB8419821A82910142E061E0F501848900
:1012700095890E94C01309811A8110270127102720
:10128000F02FF670EF2E20E030E0B401A301C5018D
:101290000E94BC2364E473E2C2010E9484185C01D2
:1012A000892B09F0C1CF809158018823E9F0109271
:1012B00058018FEF8B879E01255F3F4F290119E071
:1012C000D12E02EFE02EFF24FA9406C0D8011E961C
:1012D0008C911E9780FDEAC267EA73E3C2010E9407
:1012E00084188C01892B91F780915901882309F486
:1012F00062C0109259018FEF8B87FE013B962F0140
:1013000077247A9466E773E3C2010E9484188C0103
:10131000892B09F450C0D8011E968C9182FFF2CF20
:10132000F894F80184809580A680B780D1881686CD
:10133000118A789480859185A285B385881A990A47
:10134000AA0ABB0A7801F2E1EF0EF11CD801DD20F8
:1013500091F056968C91F801E80FF11D778A108E66
:10136000118E8D5FF801868B823308F0AEC0DA945F
:10137000D801D110EECF1F968C91882309F4B0C10B
:10138000813009F4C6C3823009F4D6C4D801569618
:101390008C9190E0C2970CF4B5CF6B85C801429652
:1013A0000E945E3766E773E3C2010E9484188C01D5
:1013B000892B09F0B0CF80915A018823D1F0109287
:1013C0005A018FEF8D87FE013D966F0132E7932E14
:1013D00044E7B42E06C0D70152968C91529780FDF7
:1013E000DCC268ED75E3C6010E9484187C01892B7C
:1013F00091F780915B018823E9F010925B018FEFF8
:101400008D879E01235F3F4F690117E0612E0FEA30
:10141000702E88EA882E06C0D8011E968C911E97E1
:1014200080FD19C369EB75E3C6010E9484188C0125
:10143000892B91F7A89580917301882329F080E486
:10144000809360001092730110913402112309F40B
:1014500073C000912A0100FD12C0153008F46CC061
:10146000B0907401CB2C8BEF8B0D8C3308F4E2C35E
:10147000EEE7CE1609F475C5016000932A01412FED
:1014800050E06EE770E084E791E00E94153B009722
:1014900039F00E7F00932A018457914011E0180F14
:1014A00001FD0CC0902F926090932A018BE793E08E
:1014B0009F938F930E9465310F900F90B12EDD2482
:1014C000DA9480E0EB2CF12C1EC06B85C7010E94E2
:1014D0005E37DA944DCF90E0402F50E0481B590B17
:1014E000B701680F791F6C587E4F8C589E4F0E9431
:1014F0002B3B10922601802F9FB7F8942091340245
:10150000121761F09FBF10913402012F0B1919F7C8
:101510009FB7F894209134021213F4CF0093340251
:101520009FBFF1E0DF1208C08BE793E09F938F939A
:101530000E9465310F900F900E94461E6B017C0146
:101540002C893D894E895F89621B730B840B950B37
:101550008090330190903401A0903501B090360115
:101560003FEF831A930AA30AB30A80923301909241
:101570003401A0923501B092360140902F01509075
:1015800030016090310170903201460E571E681E86
:10159000791E40922F015092300160923101709279
:1015A00032016115710541E08407910508F020C3FF
:1015B0009B01AC010E94783ADC01CB0181509F4F26
:1015C000AF4FBF4F892F9A2FAB2FBB2740912B01D5
:1015D00050912C0160912D0170912E01840F951F67
:1015E000A61FB71F84179507A607B70718F48FEF34
:1015F0009FEFDC0180932B0190932C01A0932D0190
:10160000B0932E01409152015091530160915401C9
:10161000709155015C546B437B4F2F2DC416D5063A
:10162000E606270B27FDADCCBF93AF939F938F9317
:101630007F926F925F924F92BF92AF929F928F92E2
:1016400087E194E09F938F930E9465316DB77EB7D9
:10165000625F7F4F0FB6F8947EBF0FBE6DBF809163
:10166000520190915301A0915401B0915501C816B7
:10167000D906EA06FB0698F480914E0190914F013D
:10168000A0915001B09151010196A11DB11D80930F
:101690004E0190934F01A0935001B0935101C0921D
:1016A0005201D0925301E0925401F09255011092F0
:1016B0002B0110922C0110922D0110922E011092EC
:1016C0002F011092300110923101109232011092CC
:1016D000330110923401109235011092360151CC31
:1016E00082E389831A820E94461E6B017C0191016C
:1016F00042E061E0F801848595850E94C0130E9454
:10170000461EDC01CB018C199D09AE09BF0981324F
:101710009340A105B10508F022C2998197FD5AC2F4
:10172000C818D908EA08FB08D80150968C9188237C
:10173000C1F02FEF280F41E050E002C0440F551FC9
:101740002A95E2F7052E000C660B770BC40ED51E0A
:10175000E61EF71E04C0F694E794D794C7948A95C2
:10176000D2F7BFEFCB16D104E104F10408F094C224
:101770002A8130E0220F331F892F90E0982F88278D
:10178000990F822B932BF8012689E20FF11DC78A4E
:10179000808F918F2D5FD80156962C93F7CDCB84F7
:1017A00081E089831A821B821C82910143E061E0FF
:1017B000848995890E94C01369817A818B819C817B
:1017C0000E94AA3ABB27A92F982F872F9C01AD0111
:1017D00044275527288B398B4A8B5B8B37E039831D
:1017E0001A82910142E061E0D50154968D919C915D
:1017F00055970E94C0138A81982F9C7F8889817099
:10180000E92EE82A088919892A893B89B401A301AC
:10181000C5010E94BC23FFCCCB8419821A821B8293
:101820001C82910144E061E0F501848995890E9460
:10183000C01369817A818B819C810E94AA3AF62F1C
:10184000F770EF2E8B019C01B401A301C5010E942A
:10185000BC23E1CC2B85288B3CE039831A821B8288
:101860001C82910144E061E0848995890E94C01343
:1018700069817A818B819C810E94AA3A6B017C01EB
:10188000BFE0B9831A82910142E061E0F5018489E9
:1018900095890E94C013970186013327C888EA8082
:1018A000B401A301C5010E94BC23B5CCCB84F101D6
:1018B0002D2D11922A95E9F7E982910149E061E025
:1018C0001C968D919C911D970E94C013D801539630
:1018D0008C9190E0FC017496E00FF11F3B81232F67
:1018E000207FE1F0203FD1F0F482F382F282F18296
:1018F000F801E80FF91FF48AF80183898B5F838B65
:10190000803308F003C2D8011E968C911E978E7FFB
:101910001E968C93C8010E948437DECC2D81422F05
:10192000407F09F0B5C15F81452F407F11F0403FF6
:10193000D9F648854039C1F649854F77B42EB0E2D3
:10194000B41790F2D801A80FB91F4A8154964C934E
:101950008C8181838E818283852F90E03F71AC01E1
:10196000440F551F42955295507F5427407F54276E
:10197000342B3383880F991F880F991F80762F711E
:10198000822B8483D80153968C9153978B5F539607
:101990008C93803308F4C0C1BAC1AD8450968D9148
:1019A0009C915197C09748F1B982D7011C96ED914F
:1019B000FC911D978701085E1F4F20E3A10161E0A4
:1019C00080810E94DB1880E3F701878B80899189F1
:1019D000C097918B808B6A2DC70143960E945E371A
:1019E000D70150968D919C915197C09760F11092BC
:1019F000260181E080935A01F4CCD7011C96ED9129
:101A0000FC911D979B86810122E0AE01455F5F4FEF
:101A100061E080810E94DB1889818F7190E0982FAE
:101A200088272A81822BF7012685378528173907D1
:101A300010F497878687D70151969C938E93509781
:101A4000C0970CF0B1CFF70182898E7F828BC701DE
:101A50000E94D037C6CC4D84F101262D11922A95D3
:101A6000E9F77B861C8689825396AC905397B12CFC
:101A7000750134E1E30EF11CE00EF11E910147E027
:101A800061E01C968D919C911D970E94C0139E0150
:101A9000255F3F4F42E061E0D8011C968D919C91FB
:101AA0001D970E94C0138C85B82FBF735B2E807466
:101AB000982EF801EA0DFB1D8A81848B8B81F7013A
:101AC00081838C8182838D8183838E8184838F81C6
:101AD0008583D80153968C9153978A5F53968C9344
:101AE0008F3208F0A4C1992031F0F80181899289E0
:101AF0000196928B818B552009F493C1D8011E96D3
:101B00008C911E978E7F1E968C93C8010E948437FD
:101B100089CC8FE789838EEF8A830E94461E688B6B
:101B2000798B8A8B9B8B910142E060E0F801848580
:101B300095850E94C0130E94461E6B017C01DC014A
:101B4000CB01288939894A895B89821B930BA40BB5
:101B5000B50B81329340A105B10508F4AAC0D801A4
:101B600056968C91F801E80FF11D778A92E0908FDC
:101B7000118E8D5FF801868B09CC318D308F789472
:101B8000AC01415F5F4F5F934F931F922F93FC0116
:101B900087891F928F9389811F928F931F930F9331
:101BA0000E9465312DB73EB7265F3F4F0FB6F894C0
:101BB0003EBF0FBE2DBF7FCA2E853F85E217F307BC
:101BC00009F0FEC0809590E02A8530E082179307E7
:101BD00009F433C1D80156968C91F801E80FF11D34
:101BE000778A93E0C4CFCC8ADD8AEE8AFF8AF0C977
:101BF0006115710550E18507910508F0F8CC8B015E
:101C00009C0101501F4F2F4F3F4F5527432F322F1D
:101C1000212F0E94783ADC01CB0140912B01509199
:101C20002C0160912D0170912E01840F951FA61F2C
:101C3000B71FD8CCD09075018D2D807F803109F0F1
:101C400017CC1B1508F478CC8B2D90E0FC01ED58D7
:101C5000FE4F20812E3709F00BCCFC01EF58FE4FD0
:101C60004F01FC01EE58FE4F9081D4018C91292F39
:101C700030E07901F82A6DEF6B0D84E791E00E9466
:101C80005C1EE816F90609F46EC1C0907401F0CB31
:101C9000403F09F029CE47CEF8018689E80FF11DB3
:101CA000778A91E0908F118E8D5FD80156968C9334
:101CB0006DCB80EC89831A82910142E061E0D8010A
:101CC0001C968D919C911D970E94C01349812A8179
:101CD000942F9227892F82958F709827892F869528
:101CE00086958927982F9695892780FDBAC046FF4B
:101CF000C8C0F8018689E80FF11D778A25E0208F9A
:101D0000118E8D5FD80156968C9340CBB12C6C2DE3
:101D1000C8010F960E945E37BEE1BB1508F02FC2C6
:101D2000F801818992890196928B818B109226010C
:101D300081E080935801D0CAD8011C96ED91FC91A6
:101D40001D976480B281B88B2381288F40E06B2F70
:101D5000722F862D0E94FF190E94461E6B017C0186
:101D600030E1C30ED11CE11CF11C0E94461E2F2D38
:101D7000C616D706E806290B27FFF7CFF89441E0EF
:101D80006889788D862D0E94FF190E94461E6B017E
:101D90007C017894D101EAE01D92EA95E9F7F4E834
:101DA000F98323E22A8391014AE061E0D8011C967D
:101DB0008D919C911D970E94C013FE01339685E082
:101DC0009191892728E030E005C0880F2150310922
:101DD00009F4F2CE87FFF9CF880FBDE18B27F6CF4C
:101DE0005489658990892189328943898F5F858FDC
:101DF00078946F935F934F933F932F939F93898131
:101E00001F928F938AEE93E09F938F930E94653188
:101E1000EDB7FEB73A960FB6F894FEBF0FBEEDBF12
:101E200025C91092260181E080935B01FBCA642DD5
:101E3000C8010F960E945E3756CE898584FF18C070
:101E40008B8187FD60C0D80156968C91F801E80F10
:101E5000F11D778AB4E0B08F118E8D5FF801868B0B
:101E600095CAF8018689E80FF11D778A93E01ACFA9
:101E7000D80156968C91F801E80FF11D778AB5E0EC
:101E8000EACFC818D908EA08FB08F80130893323DB
:101E9000C9F08FEF830F61E070E002C0660F771F1B
:101EA0008A95E2F7CB01092E000CAA0BBB0BC80EDA
:101EB000D91EEA1EFB1E04C0F694E794D794C7947B
:101EC0003A95D2F77FEFC716D104E104F10408F088
:101ED0003FC0842F90E0AC01542F4427550F550F7D
:101EE000F4E02F9FC0011124842B952BD801569626
:101EF0002C91F801E20FF11DC78A808F918F2D5F21
:101F0000F801268B43CAC818D908EA08FB08F1E58E
:101F1000CF16F5E5DF06E104F104D0F42C8130E0C2
:101F2000220F331F90E0982F8827990F822B932B35
:101F3000D80156963C91F801E30FF11D2F812695AB
:101F40002F73278B808F918F3D5FF801368B1ECAD0
:101F5000D80156968C91F801E80FF11D778A91E02F
:101F600006CE11E0ABCA802F8D7F80932A0180912D
:101F70000901D81202C181E08D0D8F7080618093BC
:101F80000901B6E78B16B1E09B0609F008F4BEC064
:101F9000E6E7F1E0BA8ECDB6DEB68F010F5F1F4FD8
:101FA0002081222309F4E6C0EAE7F3E084912817B0
:101FB00008F0E0C030E0220F331F220F331F220F42
:101FC000331FF901ED50FF4FE4914DB75EB764E068
:101FD000E69F4019510911240FB6F8945EBF0FBE59
:101FE0004DBF8DB79EB70196F901EB50FF4F44915D
:101FF000F901EA50FF4F65917491FB01640F711D67
:10200000AC01D98AC88A998F888FE617F70709F437
:1020100082C08016910608F46EC0A491A53028F104
:10202000A73009F068C02801BFEF4B1A5B0AD8013E
:10203000AC9082010A0D111D8016910608F45BC058
:10204000B12CC12CD12CDA01AD92BD92CD92DC9293
:102050001397612C712C14964D925D926D927C9227
:102060001797485F5F4F3196D0CF7A0184E0E80E32
:10207000F11C68019FEFC91AD90AD8011C91912F50
:102080009F77492E512C612C712C012F0076003640
:10209000A9F117FF3EC086010F5F1F4FD8011197AE
:1020A0008C91440C551C661C771C440C551C661CFA
:1020B000771C440C551C661C771C440C551C661C74
:1020C000771C440C551C661C771C440C551C661C64
:1020D000771C440C551C661C771C982F9F77492A47
:1020E00087FDDACFDA014D925D926D927C92139763
:1020F000A70131968ACF87E00E94073AB0EE4B2ABB
:1021000055245A94652C762CC4CFBA8CDD24D394F4
:10211000D8C98601E7CFC888D988888D998D409124
:102120002701442331F0F901EC50FF4FE491E0FF27
:1021300011C028503F4FF90125913491F9010995BB
:102140000FB6F894DEBE0FBECDBE08151905E8F631
:10215000F80121CF809128011F928F93E6E2F4E0ED
:10216000FF93EF930E9465310FB6F894DEBE0FBE69
:10217000CDBEEBCF85E00E94073A1B2D97C9F1E059
:10218000FB1508F4D3CDBFCBCF93DF93EC0161EE09
:1021900070E188810E94D326FC018C819D81AE81F3
:1021A000BF81892B8A2B8B2B51F420E0F89494A5C6
:1021B0009D7F922B94A77894DF91CF91089522E090
:1021C000F5CF0F931F93CF93DF938C014DE250E037
:1021D00061EE70E1FC0180810E94A426EC01F8010F
:1021E000848518160CF041C064E06CA7F801848166
:1021F0000E94F41C6A8F7B8F8C8F60E0F8018085D1
:102200000E94F41C6D8F7E8F8F8F80E090E0A0E0A5
:10221000B0EC88A399A3AAA3BBA3F80180899189F4
:10222000A289B3898E8B9F8BA88FB98F6BE070E0EA
:10223000CE0184960E9435278E899F89A88DB98DFD
:102240008997A105B10548F08BEE91E19B838A83C4
:10225000DF91CF911F910F9108958CA580618CA77C
:10226000DF91CF911F910F91089560E0BECFCF9382
:10227000DF93EC0161EE70E188810E94D326FC01BE
:102280008C819D81AE81BF81F89446855785608998
:102290007189452B462B472B79F484839583A6833C
:1022A000B783828B938BA48BB58B84A5877F84A700
:1022B0007894DF91CF91089586E10E94073A0F93B9
:1022C0001F93CF93DF938C0161EE70E1DC018C9161
:1022D0000E94D326EC010E944F27FC01D8011496DE
:1022E0004D915D916D917C911797428353836483E7
:1022F000758318968D919C91199791878087892B6A
:1023000009F466C0D8011C968D919C911D97978306
:1023100086831286F8948CA5282F217081FB99273B
:1023200090F9291729F091E0892792859160928789
:102330004E855F8568897989452B462B472B59F552
:1023400083FD19C08CA7118210828CA19DA1892BBD
:10235000A9F1AEA1BFA1ED93FC93FFA3EEA3CE0123
:102360000E949130CE010E94C8347894DF91CF91C1
:102370001F910F910895809145019091460191839D
:102380008083F0934601E09345017894DF91CF91EB
:102390001F910F9108958CA7118210828CA19DA18D
:1023A000892B89F0AEA1BFA1ED93FC93FFA3EEA30F
:1023B0007894DF91CF911F910F910895FFA3EEA321
:1023C000FDA3ECA3CCCFFFA3EEA3FDA3ECA3CDCF45
:1023D00087E10E94073ACF92DF92EF92FF920F932C
:1023E0001F93CF93DF93EC01EA8DFB8D8C8D80835F
:1023F0000E94461E0E891F89288D398D6B017C0134
:10240000C00ED11EE21EF31E8E859F85A889B98954
:102410000197A109B1098E879F87A88BB98B80FF8F
:102420000EC0CC82DD82EE82FF8281E0DF91CF910F
:102430001F910F91FF90EF90DF90CF900895892B1F
:102440008A2B8B2B59F1488559856A857B858A892A
:102450009B89AC89BD89840F951FA61FB71F8A8BE6
:102460009B8BAC8BBD8B0C851D85012E000C220B2C
:10247000330B400F511F621F731F488759876A87AC
:102480007B872B2F8C159D05AE052F0927FDC9CF06
:102490008C839D83AE83BF8381E0C8CFCE010E9431
:1024A0009130811102C080E0C1CF4C815D816E818D
:1024B0007F81972F4C155D056E059F0997FFB6CF5D
:1024C0004C195D096E097F094038514C6F4F7F4FA1
:1024D0000CF0A7CF88E10E94073A46E050E06FE990
:1024E00072E1FC0180810C94A426CF92DF92FF92CE
:1024F0000F931F93CF93DF93EC016FE972E18C810F
:102500000E94D3266C01F8840F2D10E0A8014D5FC6
:102510005F4F65E772E188810E94A426FC01D182A9
:10252000C082F2826C857D85A8010396DF91CF91F0
:102530001F910F91FF90DF90CF900C94223BFF9260
:102540000F931F93CF93DF938C0146E050E06FE928
:1025500072E1FC0180810E94A426EC01F801F08464
:1025600061E0F11060E0F80184810E94F41C6A834C
:102570007B838C838D81F11009C091E0892B8D8341
:10258000DF91CF911F910F91FF90089599E0892BD2
:102590008D83DF91CF911F910F91FF9008950F933D
:1025A0001F93CF93DF938C0160E075E2FC01808183
:1025B0000E94D326EC010E947634909100018A8D0E
:1025C000981303C08FEF80930001F80184819581F7
:1025D000A681B781888B998BAA8BBB8B8C839D83BB
:1025E000AE83BF8380859185A285B3858C879D87C7
:1025F000AE87BF8784858E8F91E0980F9D8F40892D
:10260000518962897389488759876A877B872489BA
:1026100035893F8B2E8B208D318D398F288F948D6E
:102620009C8F811105C0DF91CF911F910F9108956B
:10263000CE01DF91CF911F910F910C94C8348BE1A3
:102640000E94073A8F929F92AF92BF92FF920F9390
:102650001F93CF93DF93EC016FE972E188810E94B1
:10266000D3268C01F88483E08F1508F484C0F80128
:102670008581867009F07FC08C849D84AE84BF8480
:102680008C819D81AE81BF81892B8A2B8B2B09F098
:1026900074C0EAE3F4E0A591B49111968C9184FDA5
:1026A00004C060E08CE00E94F41C60E08FE00E94B7
:1026B000F41C60E08DE00E94F41C60E08EE00E945B
:1026C000C61980E58CBD1DBC8114F2E19F06FAE7B6
:1026D000AF06B10408F041C0811489E098068DE38B
:1026E000A806B10418F5E0E88E16E4E89E06EEE1CF
:1026F000AE06B104C0F5F0E48F16F2E49F06FFE0E9
:10270000AF06B10468F580E2881681EA980687E092
:10271000A806B10458F590E0E0E98E16E0ED9E06BB
:10272000E3E0AE06B10428F583E002C090E080E06B
:10273000CF2DCC0FCC0FC065C82BF801C08391837F
:10274000858184608583DF91CF911F910F91FF90E8
:10275000BF90AF909F908F90089591E080E0E8CF78
:1027600090E081E0E5CF91E081E0E2CF91E082E08E
:10277000DFCF82E0DDCF0E941F138EE20E94073A76
:102780006F927F928F929F92AF92BF92CF92DF9281
:10279000EF92FF920F931F93CF93DF934C01E62E9E
:1027A000142F6901DC0115967C901597872D867092
:1027B00009F451C071FC39C0F401908181819CBD44
:1027C0008DBDF72DF1706F2E70FCC8C0EE2009F49E
:1027D0009CC08FEF810F112351F0F60190819EBDB7
:1027E0000DB407FEFDCF9EB591938150B8F76620DA
:1027F00091F1072D069506950695402F409541705D
:10280000D40112966D917D918C91DF91CF911F91A2
:102810000F91FF90EF90DF90CF90BF90AF909F907F
:102820008F907F906F900C94FF19ED91FC914185F2
:1028300042706681778180850E94FF19B72DB17043
:102840006B2E70FC17C0D401CD91DC91AA24AA9400
:10285000A10E111126C0DF91CF911F910F91FF9012
:10286000EF90DF90CF90BF90AF909F908F907F9030
:102870006F900895072D069506950695402F417097
:10288000F4016281738184810E94FF19D401CD918A
:10289000DC91AA24AA94A10E112309F4AECF6624D8
:1028A0006394B12C8FEFA81AB80AAC0CBD1CD601EA
:1028B000FC9008E010E0898580FF35C0EE81FF8143
:1028C000888580834F2D40786B817C818D810E942B
:1028D000FF19FF0CEE81FF8188858083110FE8814D
:1028E000F98190818A81892391E009F490E0192B84
:1028F000015009F7EE2011F0F6011083FFEFCF1A17
:10290000DF0AAC14BD0499F672CFF6019601210FCF
:10291000311D2E173F0709F46ACF81918EBD0DB48A
:1029200007FEFDCFF6CF4F2D40786B817C818D81E6
:102930000E94FF19FF0CEE81FF8188858083110FB3
:10294000E881F98190818A81892391E009F490E0FE
:10295000192BEE81FF8188858083CACF73FA4427C3
:1029600040F9F4016281738184810E94FF19662419
:1029700063942CCFCF93DF93EC016FE972E18881F0
:102980000E94D326288539854C8160E0DF91CF9164
:102990000C94C013FF920F931F93CF93DF93EC011E
:1029A00018816FE972E1812F0E94D3260C81F8848F
:1029B000C9852F2D3C2F402F61E00E94C013CF937B
:1029C000FF921F920F931F921F9385EE93E09F93A8
:1029D0008F930E9465318DB79EB708960FB6F89415
:1029E0009EBF0FBE8DBFDF91CF911F910F91FF90C2
:1029F0000895AF92BF92DF92EF92FF920F931F93D1
:102A0000CF93DF93FC01A485B585968547855089D2
:102A1000E18822893389F488A588B6887789008D72
:102A2000118DD28C808586279C9384FD20C085FDE6
:102A300022C086FD24C087FD26C09C93862F8295E8
:102A4000807F808768279C9364FD2AC065FD25C030
:102A500066FD1CC067FD1EC09C93DF91CF911F9146
:102A60000F91FF90EF90DF90BF90AF900895EA0133
:102A7000E88285FFDECFE901F88286FFDCCFE50141
:102A8000788387FFDACFE801D882D7CFF50170834A
:102A900067FFE2CFE801D882DFCFE901F882D8CF23
:102AA000FA01E082D3CF5F926F927F928F929F92D2
:102AB000AF92BF92CF92DF92EF92FF920F931F934C
:102AC000CF93DF938C01FC01C080D180E280F38042
:102AD00084809580A680B78066246A94660E6623FB
:102AE00001F1EA01712CFFEF6F1A7F0A640E751E67
:102AF00059900E94461EDC01CB018C199D09AE093C
:102B0000BF0988159905AA05BB0598F3652DC8016D
:102B10000E94F9140E94461E6B017C01C615D70560
:102B200039F7F801C082D182E282F382DF91CF913E
:102B30001F910F91FF90EF90DF90CF90BF90AF90DB
:102B40009F908F907F906F905F900895EF92FF928B
:102B50000F931F93CF93DF938C0162E47BE2FC0120
:102B600080810E94D3267C018FE090E00E94423158
:102B7000EC0188E893E19E878D87F8018089880FB2
:102B80008C8761E084810E94C6196E837F83888769
:102B900061E0F80184810E94F41C688379838A8350
:102BA00061E0F80180850E94C61969877A878B8762
:102BB00061E0F80180850E94F41C6B837C838D8327
:102BC000F701D283C183838181608383DF91CF91B9
:102BD0001F910F91FF90EF9008950F931F93CF9344
:102BE000DF93EC0165E276E188810E94D3268C01B7
:102BF000FC0161857285838541E00E94FF1948854B
:102C000059856C81C801DF91CF911F910F910C9470
:102C100053150F931F93CF93DF93EC0165E276E199
:102C200088810E94D3268C01FC0161857285838591
:102C300040E00E94FF19488559856C81C801DF91E9
:102C4000CF911F910F910C945315CF92DF92EF9279
:102C5000FF920F931F93CF93DF93EC014BE150E072
:102C600065E276E188810E94A4268C0160E08C8177
:102C70000E94F41CF80161877287838760E0888571
:102C80000E94F41CF80164877587868760E08C8554
:102C90000E94F41CF8016787708B818B60E0888943
:102CA0000E94F41CF801628B738B848B60E08C892A
:102CB0000E94F41CF801658B768B878B60E0888D11
:102CC0000E94F41CF801608F718F828FF8940E942B
:102CD000461E6B017C0160E0C8010E94F9140E944D
:102CE000461E7894DC01CB018C199D09AE09BF0901
:102CF000CC8CDD8CEE8CFF8C8C159D05AE05BF0554
:102D000048F4C81AD90AEA0AFB0AF801C482D58233
:102D1000E682F782DF91CF911F910F91FF90EF90A4
:102D2000DF90CF900895DF92EF92FF920F931F9361
:102D3000CF93DF93EC01D88883E08D15B0F16FE974
:102D400072E188810E94D3267C018AE090E00E9493
:102D500042318C0161E08C810E94C619F8016083C8
:102D60007183828360E088850E94F41CF80163838C
:102D70007483858360E08C850E94F41CF80166836F
:102D800077838087D186F7018581982F967081F4AB
:102D9000F7011183008382608583DF91CF911F91BA
:102DA0000F91FF90EF90DF9008958BE10E94073A1A
:102DB0000E941F13CF92DF92EF92FF92CF93DF9387
:102DC000EC010E94461E6B017C019E01A0E8BEE35F
:102DD0000E94B13A20E432E44FE050E00E94883A89
:102DE000C20ED31EE12CF12C0E94461E6C157D05EF
:102DF0008E059F05C8F3DF91CF91FF90EF90DF9094
:102E0000CF9008950F931F93CF93DF93EC01062F7C
:102E100018E01DC06B817C818D8140E00E940E1AFC
:102E2000000F8D859E850E94DA166E817F818885D0
:102E300041E00E94B0198D859E850E94DA16688156
:102E400079818A8140E00E940E1A115049F007FFF3
:102E5000E1CF69857A858B8541E00E94B019E0CF8A
:102E600069857A858B8541E00E94B0198D859E85A4
:102E70000E94DA166E817F81888541E00E94B01938
:102E8000E985FA8510818B8518238D859E850E94A2
:102E9000DA16688179818A8140E00E940E1A69857C
:102EA0007A858B8541E00E94B019111105C0DF9130
:102EB000CF911F910F91089585E20E94073A4F929A
:102EC0005F926F927F928F929F92AF92BF92CF92BA
:102ED000DF92EF92FF920F931F93CF93DF938C01BA
:102EE000562E3A01FC0180809180A280B380C4807C
:102EF000D580E680F780EA012196FA014080642DB2
:102F0000607F0E94DF2D0E94461EDC01CB018819E4
:102F10009909AA09BB098C159D05AE05BF0598F353
:102F2000642D6295607FC8010E94DF2D0E94461EBD
:102F30006B017C01F80180849184A284B384F1E068
:102F40005F1639F15A945A94852D90E00296680ED6
:102F5000791E5990652D607FC8010E94DF2D0E9467
:102F6000461EDC01CB018C199D09AE09BF098815ED
:102F70009905AA05BB0598F3652D6295607FC80188
:102F80000E94DF2D0E94461E6B017C01C615D705ED
:102F900001F7F801C082D182E282F382DF91CF9102
:102FA0001F910F91FF90EF90DF90CF90BF90AF9067
:102FB0009F908F907F906F905F904F9008950F93A8
:102FC0001F93CF93DF938C0180913F01909140013B
:102FD000892B09F04BC060913E0170E062307105B1
:102FE0002CF482E080933E0162E070E0E0913A01CF
:102FF000F0913B014DB75EB741505F4F44275A9562
:103000009F01C0E0D0E0C901860F971F48175907FC
:1030100030F121969C01C115A4E0DA07A1F78E1BBF
:103020009F0B0E944231D0934001C0933F01909387
:103030003D0180933C010E94EB26F8018081918143
:10304000A281B3818093410190934201A0934301F7
:10305000B0934401DF91CF911F910F910895209774
:1030600011F0C901DCCF80E10E94073A8DE00E9497
:10307000073ACF932091380130913901232B91F4F5
:10308000FC01C0818C2F90E0880F991F880F991F39
:103090000E9442319093390180933801C0933701E7
:1030A000CF9108958AE00E94073A80913F01909164
:1030B00040019F938F9321E030912701311101C08E
:1030C00020E01F922F93209144012F9320914301E0
:1030D0002F93209142012F93209141012F9321E0C2
:1030E000892B09F420E01F922F9388E094E09F93AE
:1030F0008F930E9465318DB79EB70C960FB6F894EA
:103100009EBF0FBE8DBF0895CF93DF93EC019881D2
:1031100040913701A0913801B09139010BC0FD01F8
:1031200084E0989FE00DF11D112420813181261744
:10313000370741F09F5F941790F380E090E0DF91B4
:10314000CF910895988382819381DF91CF910895E3
:10315000CF92DF92EF92FF926B017C0109C00E9437
:10316000461E292F6C157D058E052F0927FF09C0E6
:103170008091BC0087FFF3CFFF90EF90DF90CF905E
:10318000089580E30E94073A24EA2093BC000E943D
:10319000A8188091B90090E0A0E0B0E080319105DE
:1031A000A105B10521F00897A105B10509F408951D
:1031B0008FE20E94073A7F928F929F92AF92BF92C6
:1031C000CF92DF92EF92FF920F931F93CF93DF93F3
:1031D000782EC62F942EB52E822E0E94461E6B018D
:1031E0007C0120E8C20E28E3D21E21E0E21EF11C81
:1031F000C701B6010E94C4187092BB0084E8809396
:10320000BC00C701B6010E94A818AA24AA94AC0E5B
:10321000CC23B1F0C92DDB2DB12C8FEFA81AB80A41
:10322000AC0EBD1E94E8992E89918093BB009092BC
:10323000BC00C701B6010E94A818AC16BD06A1F7D4
:10324000C701B6010E94C418872D81608093BB001E
:1032500084E88093BC00C701B6010E94A818DFEF84
:10326000D80D882009F15801CD2F84EC982ECC235D
:1032700069F09092BC00C701B6010E94A818809125
:10328000BB00F50181935F01C15099F7F801ED0F83
:10329000F11DEF0184E88093BC00C701B6010E94D4
:1032A000A8188091BB00888384E98093BC00DF91DB
:1032B000CF911F910F91FF90EF90DF90CF90BF9033
:1032C000AF909F908F907F900895BF92CF92DF92A2
:1032D000EF92FF920F931F93CF93DF93D82FC62FB8
:1032E000B42E152F0E94461E6B017C0120E8C20EF1
:1032F00028E3D21E21E0E21EF11CC701B6010E94A4
:10330000C418D093BB0084E88093BC00C701B60109
:103310000E94A8180FEF0C0FCC23A9F0CB2DD12FB2
:1033200010E00F5F1F4F0C0F1D1F84E8B82E89910E
:103330008093BB00B092BC00C701B6010E94A818E0
:10334000C017D107A1F784E98093BC00DF91CF912A
:103350001F910F91FF90EF90DF90CF90BF90089555
:10336000FB012FB7F8949281141644F4982B8095A2
:1033700092839181892381832FBF0895809598231B
:1033800092839181892381832FBF08958032A0F594
:1033900067FD32C0E82FE695E695E695F0E0EE0F82
:1033A000FF1FE85CFB4FA591B491109729F187703E
:1033B00021E030E0A90102C0440F551F8A95E2F7D1
:1033C000CA014FB7F89412963C911297662381F088
:1033D000382B282F209512963C93129711963C91EA
:1033E0001197232311962C9311974FBFBD01089578
:1033F000282F20953223EFCF8BE20E94073AFB0162
:103400002FB7F8949281411105C08095892382835A
:103410002FBF0895892B82832FBF0895FB012FB7FB
:10342000F8949281411109C0382F309593239283EB
:103430009181892B81832FBF0895982B928391814D
:10344000892B81832FBF0895CF92DF92EF92CF9384
:10345000DF93EC0161E088859985AA85BB85892B7E
:103460008A2B8B2B09F460E08C810E94F41C6B0189
:10347000E82E44E250E064E27AE188810E94A426CA
:10348000FC01C48AD58AE68A21E0488559856A8587
:103490007B85452B462B472B09F420E04C855D8529
:1034A0006E857F85452B462B472BB1F430E0232BCF
:1034B000FC0123A3488959896A897B89478B508FEE
:1034C000618F728F6AE070E04F96DF91CF91EF903D
:1034D000DF90CF900C94352730E1E9CFCF93DF9385
:1034E000EC0164E27AE188810E94D326F894FC0121
:1034F000278D30A1232B69F44C815D816E817F8102
:10350000FC01438F548F658F768F7894DF91CF9134
:10351000089584E10E94073A8F929F92AF92BF92E2
:10352000CF92DF92EF92FF921F93CF93DF93EC0144
:10353000EF8CF8A0E114F10409F4F0C0F7018081E8
:10354000918198A38F8F86809780A084B18411E0A9
:1035500081149104A104B10409F4A1C06C897D898E
:103560008E89412F0E94FF1980914501909146015B
:10357000F70191838083F0924601E0924501811426
:103580009104A104B104E9F08B8D9C8DAD8DBE8DAD
:1035900088169906AA06BB06A0F44F89588D698D36
:1035A0007A8D411551056105710509F45BC08C8167
:1035B0009D81AE81BF81480F591F6A1F7B1F166016
:1035C00022C08BA131E081149104A104B10409F05F
:1035D00068C084FB992790F921E09227391709F4F4
:1035E00043C04F89588D698D7A8D4115510561050C
:1035F0007105D1F18C819D81AE81BF81480F591F2A
:103600006A1F7B1F1460EF8DF8A1309709F077C017
:103610002BA1488B598B6A8B7B8B2071212B2BA381
:1036200011FF5FC0880D991DAA1DBB1D12FD52C060
:1036300022EB3EE23B832A838C839D83AE83BF8350
:1036400088869986AA86BB868B8D9C8DAD8DBE8D16
:1036500088199909AA09BB098C879D87AE87BF87FE
:1036600081E011C012608BA1EF8DF8A13097D9F4E1
:10367000188A198A1A8A1B8A8071812B8BA3812F41
:10368000827011FD34C0DF91CF911F91FF90EF90B8
:10369000DF90CF90BF90AF909F908F90089510E0F3
:1036A0005DCF30E096CF4281538164817581488B34
:1036B000598B6A8B7B8B8071912F9460892B8BA3A4
:1036C00011FF0FC08C819D81AE81BF81880D991D36
:1036D000AA1DBB1D2B2F84179507A607270B27FDB7
:1036E000A7CF4C835D836E837F8381E0CCCF40E0A6
:1036F00050E0BA018C819D81AE81BF8193CFC280A1
:10370000D380E480F580872F4C155D056E058F0909
:1037100087FD07C08BA1B701A601C9CF85E10E9433
:10372000073A83E10E94073A8EE10E94073A0F931D
:103730001F93CF93DF93FC01A189B2898D919C9156
:103740001197928B818B16968D919C911797C085BE
:10375000D185228521113FC02FB7F894AC015527A0
:10376000598348832FBF209145013091460111961E
:103770003C932E93B0934601A0934501A189B28951
:10378000109759F5278530898217930741F0838573
:103790009485A585B6850097A105B10531F480E033
:1037A000DF91CF911F910F910895448155816681DA
:1037B0007781840F951FA61FB71F84839583A683E7
:1037C000B78384E99BE19383828381E0DF91CF918A
:1037D0001F910F9108958883C6CF12964D915D91E8
:1037E0006D917C911597278530898217930741F059
:1037F00083859485A585B6850097A105B10551F40B
:10380000448355836683778381E0DF91CF911F9155
:103810000F9108950481158126813781800F911FB2
:10382000A21FB31F2B2F84179507A607270B27FF6F
:10383000E7CF8DE10E94073AEF92FF920F931F931B
:10384000CF93DF937C0166E97CE1DC018C910E94DF
:10385000D3268C010E944F27EC01F70184819581CA
:10386000A681B7818A839B83AC83BD838085918544
:103870009F838E83F89419821882D80151968D9176
:103880009C915297892BB9F15396ED91FC915497E5
:10389000D183C0835496DC93CE93539780E090E01D
:1038A0007894892B39F4DF91CF911F910F91FF907C
:1038B000EF900895C8010E947634D80112968D9138
:1038C0009C91139784599B41F1F08A819B81AC8133
:1038D000BD8127E93BE1F80133832283848395830B
:1038E000A683B783C801DF91CF911F910F91FF90FD
:1038F000EF900C94C834F801D48BC38BD28BC18B5E
:1039000081E090E0CDCF8A819B81AC81BD81F801BF
:103910004481558166817781272F481759076A07A7
:103920002B0B27FFD6CF8DE10E94073ACF92DF9273
:10393000EF92CF93DF93EC01488559856A857B85AB
:103940002C858C810E9463276B01E82E45E150E0B5
:1039500066E97CE188810E94A426FC01C086D186AC
:10396000E28688899989908B87878C899D89AE8921
:10397000BF8983879487A587B68787E99BE193836F
:10398000828368E070E0CF014196DF91CF91EF90A4
:10399000DF90CF900C943527B0990FC080914701EC
:1039A00090914801019610920601109205019093A2
:1039B00008018093070181E0089581E086BB809132
:1039C00047019091480101969093480180934701E7
:1039D00020E030E830930601209305019093080120
:1039E0008093070181E00895803278F5E82FE6950D
:1039F000E695E695F0E0EE0FFF1FE85CFB4FA59122
:103A0000B491109711F1877021E030E0A90102C054
:103A1000440F551F8A95E2F7CA013FB7F8941296F2
:103A20002C91129761110FC04095242312962C936C
:103A3000129711962C911197282B11962C93119770
:103A40003FBFBD010895242BF1CF8CE20E94073ABD
:103A50001F920F920FB60F9211240BB60F92EF9296
:103A6000FF920F931F932F933F934F935F936F9307
:103A70007F938F939F93AF93BF93CF93DF93EF93F6
:103A8000FF930DC07A0180918400909185008E197A
:103A90009F0997FD7CC07894B2999AC0F894C09120
:103AA0002201D0912301EA81FB81309709F0ADC05A
:103AB000EA8DFB8D2C8D20838E859F85019709F4DF
:103AC000C1C09F878E8788859985AA85BB854C81D3
:103AD0005D816E817F81480F591F6A1F7B1F4C8358
:103AE0005D836E837F8320832CA525FF0EC00C850C
:103AF0001D85012E000C220B330B800F911FA21F7E
:103B0000B31F88879987AA87BB87E881F9810481D9
:103B1000158126813781872F401751076207830B54
:103B200087FDB0CF7801F0932301E0932201A091AB
:103B30002401B091250114960D911D912D913C9178
:103B40001797872F401751076207830B87FFFD01E7
:103B5000DF010190F081E02D0481158126813781FC
:103B6000872F401751076207830B87FFF1CFF98337
:103B7000E883CD93DC93D0932501C09324018091F9
:103B80008400909185008E199F0997FF84CF863A13
:103B90009F4F0CF06AC0F0928900E0928800FF917C
:103BA000EF91DF91CF91BF91AF919F918F917F91D5
:103BB0006F915F914F913F912F911F910F91FF90C6
:103BC000EF900F900BBE0F900FBE0F901F901895A7
:103BD000F89480918400909185009701281B390BFF
:103BE0002038314CDCF12091260127FF43C09C0195
:103BF000205C304E30938B0020938A0024E026BB5B
:103C000090938900809388003ECFCE0109954C8126
:103C10005D816E817F81811178CFE881F981E480B7
:103C2000F580F0932301E09322018091240190918B
:103C30002501C817D90709F026CFF0932501E09395
:103C4000240121CFCE010E949130EA8DFB8D9C8D05
:103C500090834C815D816E817F81DDCF2091270132
:103C60002111C1CF8AE20E94073A7894B299B0CF6D
:103C7000F89409CF9C012854344F30938B00209343
:103C80008A0024E026BB7C01F39485CF2FB7F894FB
:103C90006091840070918500809147019091480166
:103CA000B09902C02FBF08952FBF7F3FE1F3019667
:103CB000089578940E9420382FEF260F6623C1F0D4
:103CC000FC018FEF9FEF31918327082E8295807F33
:103CD0008025092E982F82958F7008268695982723
:103CE0008927880F880F880F8025215060F7089555
:103CF0008FEF9FEF08956F927F928F929F92AF9276
:103D0000BF92CF92DF92EF92FF920F931F93FC012D
:103D100083818F9382818F93848135014601680E60
:103D2000711C811C911CD401C301BF93AF939F935D
:103D30006F9281818F9380818F931F930F93FF9256
:103D4000EF925F934F933F932F931F926F938DEB5F
:103D500093E09F938F930E9465318DB79EB74496F1
:103D60000FB6F8949EBF0FBE8DBF1F910F91FF90AD
:103D7000EF90DF90CF90BF90AF909F908F907F900B
:103D80006F900895CF93DF93EC016A8D662309F459
:103D900053C0FC0150E031E020E0A38DB48D4C9184
:103DA000958D942309F0532B2F5F330F33962613F1
:103DB000F4CF2C85922F952729F08D858527809526
:103DC0009823D9F4888D5D8787FD03C0815070F1F9
:103DD000888F4C815D816E817F8188859985AA85D8
:103DE000BB85840F951FA61FB71F8C839D83AE8351
:103DF000BF8381E0DF91CF910895982F909529237B
:103E00008523822B8C879E859830E0F621E0290F50
:103E10002E87FE01E90FF11D87871092260181E0B0
:103E2000809349018FEF888F5D87D3CF1092260151
:103E300091E090934901CCCF50E0BBCF0F931F93FB
:103E4000CF93DF938C016BE57FE1FC0180810E94C1
:103E5000D326EC010E947634F80184819581A681F5
:103E6000B7818C839D83AE83BF83408551856285F6
:103E70007385488759876A877B8780898D878C8778
:103E80001E861F8A8EEF888F8485898F87FD10C0DC
:103E9000452B462B472B29F4DF91CF911F910F9192
:103EA0000895CE01DF91CF911F910F910C94C834EA
:103EB0008FE10E94073ACF93FC01C481C930B8F466
:103EC0004C2F50E09A01220F331F420F531F455EC3
:103ED0005F4F6BE57FE1FC0180810E94A426FC011D
:103EE000C28F22EC3EE133832283CF91089581E299
:103EF0000E94073A0F931F93CF93DF938C016BE5DA
:103F00007FE1DC018C910E94D326FC01D80114963C
:103F10009C91828D9817B8F4292F30E0E901CC0FDD
:103F2000DD1F2C0F3D1FEF01C20FD31FF801648569
:103F300080850E94C6196B8F7C8F8D8FDF91CF910A
:103F40001F910F91089580E20E94073AFC0144817D
:103F5000558166817781208580810C946327CF927B
:103F6000DF92EF92FF92CF93DF93FC01A085B185A2
:103F700082858C93968581E089278687C82FC170BA
:103F8000C688D788E08CF18C97859F5FD1899D1773
:103F900008F05FC0892F869586958695DF01A80F6A
:103FA000B11D5A962C9130E0892F877002C035954B
:103FB00027958A95E2F72170B701A601C217A9F0EB
:103FC00033C0892F869586958695DF01A80FB11D90
:103FD0005A962C9130E0892F877002C0359527952D
:103FE0008A95E2F72170C2131FC04C0D5D1D6E1D36
:103FF0007F1D9F5F9D1728F384EA92E2938382835B
:1040000084819581A681B781480F591F6A1F7B1F44
:10401000448355836683778381E0DF91CF91FF905E
:10402000EF90DF90CF900895978784819581A68146
:10403000B781480F591F6A1F7B1F448355836683CE
:10404000778381E0DF91CF91FF90EF90DF90CF9069
:104050000895B701A601D0CF6F927F928F92CF9231
:10406000DF92EF92FF92CF93DF93EC0160E08C81BF
:104070000E94F41C3B01882EC884D984EA84FB8406
:10408000D7FC24C0A601415F5F4F6CE270E28881DB
:104090000E94A426FC01608271828282D686C58637
:1040A0008C859D859483838388899989AA89BB8916
:1040B00081879287A387B487DF91CF91FF90EF909C
:1040C000DF90CF908F907F906F90089584E20E9450
:1040D000073ACF92DF92EF92FF920F931F93CF9305
:1040E000DF93EC01E885F9858A8580830E94461E6E
:1040F0003E8521E023272E872F852F5F2F872130B4
:1041000009F45CC02530E0F40C811D812E813F81D3
:104110004A895B896C897D89DB01CA01800F911F07
:10412000A21FB31F8C839D83AE83BF8381E0DF9189
:10413000CF911F910F91FF90EF90DF90CF90089556
:10414000CC80DD80EE80FF80AB01BC014C195D09A5
:104150006E097F098E899F89A88DB98D481B590BDF
:104160006A0B7B0BDB01CA010296A11DB11DB7FDD5
:1041700034C0B595A79597958795B595A7959795CB
:1041800087950A891B892C893D89800F911FA21F61
:10419000B31F8E8B9F8BA88FB98F2FEA3FE13B8394
:1041A0002A834C0D5D1D6E1D7F1D840F951FA61F5C
:1041B000B71F8C839D83AE83BF83B8CF0C811D81D5
:1041C0002E813F81AB01BC01401B510B620B730B75
:1041D0004E8B5F8B688F798F9BCFDB01CA01059671
:1041E000A11DB11DC6CFEF92FF920F931F93CF93E6
:1041F000DF937C0164E971E2FC0180810E94D32697
:10420000EC011E8511FF07C0DF91CF911F910F9127
:10421000FF90EF900895F701048160857185F48423
:104220000B3008F045C0FAE0FF1508F441C0402FFC
:1042300050E04A960E94223B1F86117312601E872F
:10424000802F880F880F880F898BFF0CFF0CFF0CC5
:10425000F88A002349F08A8D8F738A3229F489E61F
:1042600090E29B838A830CC08A899B89AC89BD8933
:104270008E8B9F8BA88FB98F8FEA9FE19B838A8358
:10428000F8940E94461EDC01CB018058934FAF4F3B
:10429000BF4F8C839D83AE83BF83CE010E94C83401
:1042A0007894DF91CF911F910F91FF90EF90089537
:1042B00082E20E94073A0F931F93CF93DF938C0102
:1042C0006BE57FE1DC018C910E94D326EC01D801E3
:1042D0001496EC918F898E0F8F8BF8948E85E8174A
:1042E000D0F48E1BF0E03F96EC0FFD1FDE011F9611
:1042F0002FEF280F30E0205F3F4F2C0F3D1F919193
:104300009D93A217B307D9F78E877894DF91CF9149
:104310001F910F9108951E868EEF888F7894DF91FC
:10432000CF911F910F9108957F928F929F92AF929C
:10433000BF92CF92DF92EF92FF920F931F93CF9392
:10434000DF93EC0144E250E064E971E288810E946D
:10435000A4268C0178848C809D80AE80BF80CC8424
:10436000DD84EE84FF8461E0711001C060E0882D7F
:104370000E94C619F80163877487858761E08C2DD8
:104380000E94F41CF8016087718782878889998967
:10439000AA89BB89828B938BA48BB58B711018C0B3
:1043A00091E08C149D04AE04BF04C1F080E0892B21
:1043B000F8018687DF91CF911F910F91FF90EF90C9
:1043C000DF90CF90BF90AF909F908F907F90089597
:1043D00091E18C149D04AE04BF0441F780E2E7CF65
:1043E000CF93DF93EC018E8585FD0DC068857985BF
:1043F0008A8541E00E94FF198E85807381608E87D7
:10440000DF91CF910895688579858A8541E00E9482
:104410000E1A8E85807381608E87DF91CF9108950B
:10442000CF93DF93FC01A385B4855C918785982F9A
:10443000977021E030E001C0220F9A95EAF7982F9B
:10444000969596959695DF01A90FB11D5A969C9168
:104450005A9745854523E1F0292B5A962C938F5F77
:1044600090898917E8F4878744815581668177812F
:1044700086899789A08DB18D840F951FA61FB71FC0
:1044800084839583A683B78381E0DF91CF910895DC
:10449000209529235A962C938F5F9089891718F3BA
:1044A000EF01CF010E94F0218E8588608E871092E7
:1044B000260181E080934A0180E0DF91CF91089549
:1044C000CF93DF93FC01A385B4859C9185858923D7
:1044D000E9F0868584608687878591E0980F9787C5
:1044E000803408F544815581668177818689978972
:1044F000A08DB18D840F951FA61FB71F8483958350
:10450000A683B78381E0DF91CF910895868582FFEE
:10451000E3CF178680E192E293838283CF01DF911C
:10452000CF910C941022EF01108ACF010E94F0214C
:104530008E8588608E871092260181E080934A01E3
:1045400080E0DF91CF9108951F93CF93DF93EC012B
:104550001889112369F14E8545FD23C01F8680E629
:1045600092E29B838A838E899F89A88DB98D880F5B
:10457000991FAA1FBB1F880F991FAA1FBB1F4C8121
:104580005D816E817F81840F951FA61FB71F8C836D
:104590009D83AE83BF8311E0812FDF91CF911F9167
:1045A000089540716B857C858D850E94B019D6CFAA
:1045B0000E94F0218E8588608E871092260181E00E
:1045C00080934A01812FDF91CF911F910895FC01C3
:1045D0001092260181E080934B01818D8160818F53
:1045E000448155816681778180859185A285B385D7
:1045F000840F951FA61FB71F84839583A683B78357
:1046000081E008950F931F93CF93DF938C0164E4AF
:1046100073E2FC0180810E94D326EC010E94763473
:10462000F80184819581A681B7818C839D83AE83B7
:10463000BF8380859185A285B38588879987AA875E
:10464000BB87892B8A2B8B2B29F4DF91CF911F916C
:104650000F91089584859585A685B7858C879D875C
:10466000AE87BF8780899189A289B389888B998B0E
:10467000AA8BBB8B84898E8B1F8ACE01DF91CF9151
:104680001F910F910C94C834FF920F931F93CF93F7
:10469000DF93EC01F88483E08F15E0F04AE150E00D
:1046A00064E473E288810E94A4268C0187EE92E282
:1046B000F801938382836FE972E18C810E94D32693
:1046C000F801958B848BF08EDF91CF911F910F9124
:1046D000FF90089587E20E94073ACF93DF93EC01A1
:1046E0006B817C818D8140E00E940E1A8D859E85B4
:1046F0000E94DA166E817F81888541E00E94B019A0
:104700008D859E850E94DA1669857A858B8541E0C4
:10471000DF91CF910C94B0191F93CF93DF93EC01ED
:10472000162F8D859E850E94DA1669857A858B8580
:1047300041E00E94B0196E817F81888541E00E942E
:10474000B0198D859E850E94DA166B817C818D81E2
:1047500040E00E940E1A8D859E850E94DA166881BF
:1047600079818A8140E00E940E1A612FCE01DF918B
:10477000CF911F910C9402178F929F92AF92BF928C
:10478000CF92EF920F931F93CF93DF93EC014801E9
:1047900059011F92EF92BF92AF929F920F937F9316
:1047A0006F935F934F931F92CF9287EC93E09F9309
:1047B0008F930E9465318DB79EB70E960FB6F89411
:1047C0009EBF0FBE8DBFE11009C08C859D85AE8553
:1047D000BF8588169906AA06BB0688F48F898F5F65
:1047E0008F8B9E898917B0F4DF91CF911F910F9124
:1047F000EF90CF90BF90AF909F908F900895888951
:104800009989AA89BB8988159905AA05BB0530F342
:104810001F8AEACF809127018111FACF86E20E9498
:10482000073A9F92AF92BF92CF92DF92EF92FF92A0
:104830000F931F93CF93DF93EC01C62E942ED52EAA
:10484000B22E78016C85862F8160A82EC11085C09C
:104850006A2DCE010E948C238FEF8B0DBB2009F4B3
:104860006EC06701C80ED11C69857A858B8541E0D1
:104870000E94B01908E010E08D859E850E94DA162E
:104880006E817F81888541E00E94B0198D859E856B
:104890000E94DA16110FE985FA8590818B858923AC
:1048A00091E009F490E0192B688179818A8140E0D8
:1048B0000E940E1A015001F769857A858B8541E0C7
:1048C0000E94B019CE14DF04F1F06B817C818D81E0
:1048D00040E00E940E1A8D859E850E94DA166E8138
:1048E0007F81888541E00E94B0198D859E850E9458
:1048F000DA16688179818A8140E00E940E1AF701F8
:1049000011937F01B1CF69857A858B8541E00E9443
:10491000B0198D859E850E94DA166E817F8188850B
:1049200041E00E94B0198D859E850E94DA1668814B
:1049300079818A8140E00E940E1AF6011083CE012F
:10494000DF91CF911F910F91FF90EF90DF90CF906B
:10495000BF90AF909F900C946D23CE010E948C234A
:10496000092D1D2DCA94D12CEFEFCE1ADE0AC00EF0
:10497000D11EF80161918F01CE010E940217C0166D
:10498000D106B9F765CFDF92EF92FF920F931F9395
:10499000CF93DF937C01C62FD42E152FFC016485A5
:1049A0000E948C230FEF0C0FCC2371F0CD2DD12F53
:1049B00010E00F5F1F4F0C0F1D1F6991C7010E9470
:1049C0000217C017D107C9F7C701DF91CF911F9117
:1049D0000F91FF90EF90DF900C946D2349E150E030
:1049E0006EEE74E2FC0180810E94A42620E338E28E
:1049F000FC01338322832BE438E233872287089536
:104A0000CF93DF93DC0114969C911497C0E0D0E023
:104A1000FE01E05DFB4FE4919E1739F02196C8300E
:104A2000D105B1F78DE20E94073A87E980937A00B9
:104A300030917E0081E090E00C2E01C0880F0A9436
:104A4000EAF7832B80937E004FE150E060E075E24F
:104A50008C910E94A426FC0186E395E293838283D5
:104A6000C28F81E0858FDF91CF910895FC01809105
:104A70007A0086FF0EC084819581A681B781885314
:104A8000984FAF4FBF4F84839583A683B78381E050
:104A90000895828D90910001981761F09F3F59F71A
:104AA000809300018770806480937C0087ED809301
:104AB0007A00E1CF8FEF8093000120917800309150
:104AC0007900858D968D891780F544895589240F45
:104AD000351F8F5F358B248B858F891760F1868911
:104AE000978928173907C8F1808D918D8217930710
:104AF000A0F1138E1092260181E080934D01408930
:104B000051896289738980859185A285B385840FD7
:104B1000951FA61FB71F808B918BA28BB38B8483AD
:104B20009583A683B78381E0089581E0358B248B3C
:104B3000858F8917A0F644815581668177818485A8
:104B40009585A685B785840F951FA61FB71F8483FB
:104B50009583A683B78381E00895838D8F5F838FCC
:104B6000948D891738F2809127018111C2CF8AE193
:104B70000E94073AEF92FF920F931F93CF93DF9318
:104B80008C016EEE74E2FC0180810E94D326EC0160
:104B9000F8948E8980FF13C07E01F8E0EF0EF11CBF
:104BA000C7010E947634F80184819581A681B7817E
:104BB0008C879D87AE87BF87C7010E94C8347894D1
:104BC000DF91CF911F910F91FF90EF9008951F9368
:104BD000CF93DF93EC01162FAC89BD891097B9F004
:104BE0001296ED91FC9113978D919C9111979D8B4D
:104BF0008C8B11961C921E9213961C921E921297E9
:104C0000612FCD010995AC89BD89109749F71092A4
:104C1000260181E080934C01DF91CF911F9108958F
:104C2000EF92FF921F93CF93DF937C01FC011081E1
:104C30006EEE74E2812F0E94D326EC01F8948E89E7
:104C400080FF09C0F70164816F8B8A7F84608E8B3F
:104C5000CE010E94E725CE010E947634CE0108964F
:104C60000E9476341E8A8F8978941F921F921F9219
:104C70001F921F928F931F921F921F921F938FEE6E
:104C800093E09F938F930E9465318DB79EB70C96EA
:104C90000FB6F8949EBF0FBE8DBFDF91CF911F91CD
:104CA000FF90EF900895CF93DF93EC010E9476344C
:104CB000CE0108960E947634EC89FD89309751F038
:104CC000908181811382128211821082E92FF82F44
:104CD0003097B1F71D8A1C8A188E1F8A1E8ADF91B1
:104CE000CF9108950F931F93CF93DF938C016EEEB6
:104CF00074E2FC0180810E94D326EC01F8940E94AA
:104D0000532681E08E8BF80184819581A681B7813D
:104D10008C839D83AE83BF8380859185A285B38577
:104D2000888B998BAA8BBB8B892B8A2B8B2B19F0A9
:104D3000CE010E94C834F8018485888F7894DF9171
:104D4000CF911F910F910895CF93DF9390913701E9
:104D5000891730F5C82FD0E0CC0FDD1FCC0FDD1F39
:104D6000E0913801F0913901EC0FFD1F80819181B4
:104D7000892BB1F480913F0190914001892B81F4FE
:104D800071836083CA010E944231209138013091C1
:104D90003901C20FD31F9B838A83DF91CF9108957E
:104DA0008BE00E94073A90913701891788F4E091CF
:104DB0003801F091390194E0899FE00DF11D112433
:104DC000808191818617970719F4828193810895D4
:104DD0008CE00E94073ACF92DF92EF92FF92CF933E
:104DE000DF93C0913F01D09140012097B9F1219705
:104DF0006E01E12CF12CA0913E01B0E02097D9F09A
:104E000020E030E040E050E0BA0180913C01909118
:104E10003D01FC01E20FF31F4F5F5F4F6F4F7F4F6C
:104E20002A0F3B1F820F931F918380834C155D05D2
:104E30006E057F0550F380913C0190913D01CA9F22
:104E4000F001CB9FF00DDA9FF00D1124E80FF91F50
:104E5000118210829093460180934501DF91CF919A
:104E6000FF90EF90DF90CF900895FC0113821282A3
:104E7000118210826F3F710509F07CF480913F012F
:104E800090914001892B49F480913E0190E0861772
:104E9000970714F460933E0108950E949D2F2FB749
:104EA000F8948091450190914601009749F0FC01EA
:104EB0004081518150934601409345012FBF089591
:104EC0008FE00E94073ACF92DF92EF92FF921F93FA
:104ED000CF93DF936A017B0160E474E0FB0194915E
:104EE000981749F0675F7F4FF4E068387F07B1F7A4
:104EF00084E30E94073AFB013896949191FF19C010
:104F000030EAC3163FE5D306E104F10408F081C09E
:104F1000A8EDCA16A7E2DA06E104F10408F08AC097
:104F2000B7EFCB16B8E0DB06E104F10488F012E03D
:104F300010C0F8EBCF16F7E4DF06E104F10408F047
:104F400057C037EFC31638E0D306E104F10478F711
:104F500011E0FB013396A591B491FB013596C59103
:104F6000D491FB0137963491E82FE695E695E695C6
:104F7000F0E0EE0FFF1FE85CFB4F45915491877006
:104F8000E1E0F0E07F0101C0EE0C8A95EAF7FB0159
:104F90003196C590D490892F8170A038B10509F45D
:104FA0005CC0EFB7F8949881977011F0191352C054
:104FB000188381114AC09FB7F894622F70E0E60110
:104FC000798368839FBF9C913160392B3C93DA01D0
:104FD00011969C911197E92A1196EC92EFBFB601B8
:104FE000DF91CF911F91FF90EF90DF90CF900895C8
:104FF000A0ECCA16AEE3DA06A1E0EA06F104D0F0AE
:10500000C114BBEFDB06B4E0EB06F10488F414E056
:10501000A0CFC0E8CC16CEE7DC06C1E0EC06F10478
:1050200058F4D0E4CD16DFEBDD06E104F10478F3AB
:1050300015E08FCF13E08DCFC114EBEFDE06E4E077
:10504000EE06F10428F416E084CFE6012883BBCFF6
:1050500017E07FCF82E30E94073A83E30E94073A7A
:10506000FC0186898460868B1092260181E0809302
:105070004C01448155816681778180899189A2891B
:10508000B389840F951FA61FB71F84839583A683BA
:10509000B78381E00895FC013897968990FF08C096
:1050A000608D678B9A7F9460968BCF010E94E72575
:1050B00080E00895FC01A085B1859C9182858923BB
:1050C000D1F0818D80958170C9F4838D815031F14B
:1050D000838F448155816681778187859089A189F5
:1050E000B289840F951FA61FB71F84839583A6835B
:1050F000B78381E00895818D817039F385EA98E264
:105100009383828383899489A589B68984839583CF
:10511000A683B783828D838F81E00895A789B08DA0
:1051200056969C915697892F817090FFE3CF648D9E
:1051300057966C9357979A7F946056969C93569780
:10514000CD010E94E72580E008950F931F93FC0195
:10515000A085B1859C910481158126813781438585
:10516000548565857685400F511F621F731F8285A8
:10517000892361F0818D8095817059F04483558336
:105180006683778381E01F910F910895818D8170EF
:10519000A9F7438B548B658B768B8AE598E29383D2
:1051A0008283CF011F910F910C945A28CF93FC0159
:1051B000C08168E479E28C2F0E94D326FC01F89428
:1051C000818D33894489558966897894A085B18514
:1051D0002C919285922321E009F420E01F922F93D5
:1051E0006F935F934F933F93869581701F928F9338
:1051F0001F92CF9384EF93E09F938F930E9465312A
:105200008DB79EB70C960FB6F8949EBF0FBE8DBF9C
:10521000CF910895CF93FC01C08161EE70E18C2F96
:105220000E94D326FC01F89480A191A1A2A1B3A170
:1052300024A5468557856089718924FD04C076952B
:10524000679557954795841B950BA60BB70BB7FF32
:1052500007C0B095A095909581959F4FAF4FBF4FD8
:105260007894B054BF93AF939F938F931F92CF9333
:1052700089EF93E09F938F930E9465318DB79EB71E
:1052800008960FB6F8949EBF0FBE8DBFCF910895BC
:105290000F931F93CF93DF93EC014DE150E068E44F
:1052A00079E288810E94A4268C0168858C810E9405
:1052B000C619F801608771878287DF91CF911F91AE
:1052C0000F9108950F931F93CF93DF938C0168E4A0
:1052D00079E2FC0180810E94D326EC010E947634A1
:1052E000F80184819581A681B7818C839D83AE83EB
:1052F000BF8380859185A285B3858F87988BA98B85
:10530000BA8B84858A8F882361F1F801408951899D
:10531000628973894B875C876D877E8725EA38E2CF
:105320003B832A838B8F84899589A689B789892BAA
:105330008A2B8B2BA1F482E0898F6EEE74E2F80148
:10534000808D0E94D326988F8F8BF801848D8C8F4F
:10535000CE01DF91CF911F910F910C94C83483E05F
:10536000EBCF188E1F8A198EDF91CF911F910F916D
:1053700008950F931F93CF93DF938C01EC01A897AF
:10538000CE010E9476341C821D821E821F821A8AE0
:105390001B8A1C8A1D8A88A199A1AAA1BBA12CA540
:1053A0004E855F856889798924FD04C07695679567
:1053B00057954795841B950BA60BB70BB7FD40C0BF
:1053C000B095A095909581959F4FAF4FBF4F88A303
:1053D00099A3AAA3BBA31E861F86188A198A2471C3
:1053E00028602CA76D8D7E8D8F8D40E00E94FF1967
:1053F0004CA544706A8D7B8D8C8D0E94FF19D8015D
:105400001497ED91FC9111973097A9F040914501C7
:105410009091460101C0F90120813181408391833F
:10542000F0934601E09345014E2F9F2F2115310542
:1054300091F71D921C92DF91CF911F910F910895CA
:10544000B095A095909581959F4FAF4FBF4FB8CF26
:105450000F931F93CF93DF938C0161EE70E1FC01FA
:1054600080810E94D326EC016EEE74E2F801848103
:105470000E94D326BE01685D7F4F4FB7F8942AA5DE
:105480003BA5232B89F429EB39E23BA72AA7FC0192
:105490002489358939A728A7758B648B4FBFDF9185
:1054A000CF911F910F91089589E10E94073ACF9300
:1054B000DF93EC0162E47BE288810E94D3266C8159
:1054C00048855985FC01238120FD06C0FC018081AF
:1054D000DF91CF910C94651981819281DF91CF91F9
:1054E0000C94C3242F923F924F925F926F927F92BF
:1054F0008F929F92AF92BF92CF92DF92EF92FF92E4
:105500000F931F93CF93DF9300D000D000D0CDB77F
:10551000DEB78C012DB73EB73D832C8362E47BE27E
:10552000DC018C910E94D3269A838983F801F4814F
:10553000FB83D80118968D909C9019971C964D90DE
:105540005D906D907C901F9740FC99C07694679415
:1055500057944794F801E088F188C42CD12CFB8142
:105560000F2F10E0C8018C0D9D1D2DB73EB7281BD5
:10557000390B0FB6F8943EBF0FBE2DBF8DB79EB747
:1055800001965C01A981BA8113963C90A801B401EF
:105590000E94223BB32DB170BE8330FE53C0150173
:1055A000200E311E8101242DA4016B81E981FA8135
:1055B000818192810E941124C114D10409F453C045
:1055C000A6014E0D5F1DF10120E030E0D7018D9165
:1055D0007D018095908189238083DA019D91AD01C1
:1055E000892B81932F5F3F4F2C153D057CF3BE81A6
:1055F000B11139C06B81640DA501E981FA81808107
:105600000E9465192C813D810FB6F8943EBF0FBEF4
:105610002DBF26960FB6F894DEBF0FBECDBFDF912B
:10562000CF911F910F91FF90EF90DF90CF90BF909F
:10563000AF909F908F907F906F905F904F903F9032
:105640002F9008951501200E311E8101242DA401F3
:105650006B81E981FA8180810E94DB18C114D10439
:1056600009F0AECFC7CF6B81640DA501A981BA81C6
:1056700011968D919C9112970E94C324C3CF8CE107
:105680000E94073A44E050E062E47BE2FC01808142
:105690000C94A426AF92BF92CF92DF92EF92FF922A
:1056A0000F931F93CF93DF93CDB7DEB77C01ADB6D9
:1056B000BEB6FC01C08062E47BE28C2D0E94D32642
:1056C000F701648140855185D4842DB73EB72D19EB
:1056D00031090FB6F8943EBF0FBE2DBFEDB7FEB730
:1056E00031967F01FC012381870120FD2AC02D2DE9
:1056F000FC0180810E94DB18FF92EF921F92DF92E3
:105700001F92CF9280EE93E09F938F930E9465311A
:105710002DB73EB7285F3F4F0FB6F8943EBF0FBE80
:105720002DBF0FB6F894BEBE0FBEADBEDF91CF91B8
:105730001F910F91FF90EF90DF90CF90BF90AF90AF
:1057400008952D2D818192810E941124D5CF8F92B1
:105750009F92AF92BF92FF920F931F93CF93DF93CD
:105760008C01FC0184858F77F82E62E47BE28081D6
:105770000E94D326EC01F80184819581A681B7812E
:10578000892B8A2B8B2BB1F58091BC0082FF10C036
:105790008F2D880F88838B8182608B83DF91CF91DF
:1057A0001F910F91FF90BF90AF909F908F900895A1
:1057B000F80180849184A284B38461E081E10E9435
:1057C000F41C61E080E10E94F41C1092B900F0E842
:1057D0008F16FAE19F06F6E0AF06B10438F488E4CC
:1057E0008093B80084E08093BC00D2CF8CE080939B
:1057F000B800F8CF81E30E94073A809127018823FF
:1058000029F0823011F010922701089582E00E9461
:10581000073A88E00E94073ACF92DF92EF92FF9218
:105820000F931F930E94461E9F938F937F936F93B6
:1058300001E010E020E030E0C0905201D090530130
:10584000E0905401F09055016C157D058E059F0583
:1058500018F000E010E0980180914E0190914F0106
:10586000A0915001B0915101800F911FA21FB31F51
:10587000BF93AF939F938F9382E194E09F938F9315
:105880000E9465318DB79EB70A960FB6F8949EBFF9
:105890000FBE8DBF1F910F91FF90EF90DF90CF90C3
:1058A00008950E94461E9F938F937F936F938DE080
:1058B00094E09F938F930E9465310F900F900F900B
:1058C0000F900F900F900895CF93DF93FC01848188
:1058D0009581A681B7814489558966897789C58D67
:1058E000D68D3881C42FC170278D232331E009F470
:1058F00030E0C31761F04F5F5F4F6F4F7F4F448BB6
:10590000558B668B778B808F918FA28FB38F408959
:10591000518962897389272F481759076A072B0B0A
:1059200027FF18C0248D2160248F44855585668506
:105930007785840F951FA61FB71F808B918BA28B35
:10594000B38B1092260181E080935601848195816A
:10595000A681B7814085518562857385840F951F27
:10596000A61FB71F84839583A683B78381E0DF9149
:10597000CF9108950F931F93CF93DF938C016CEE1B
:105980007CE2FC0180810E94D326EC010E947634E7
:10599000F80184819581A681B7818C839D83AE8334
:1059A000BF834085518562857385488759876A879B
:1059B0007B8744855585668577854C875D876E87AF
:1059C0007F87888B998BAA8BBB8BCE01DF91CF9180
:1059D0001F910F910C94C8340F931F93CF93DF93B3
:1059E000EC0140E250E06CEE7CE288810E94A4264B
:1059F0008C0168858C810E94C619F801658F768FAD
:105A0000878F84E69CE293838283DF91CF911F91FD
:105A10000F9108954F925F926F927F92BF92CF92B3
:105A2000DF92EF92FF920F931F93CF93DF93FC01CE
:105A3000B0806CE270E28B2D0E94D326EC014D8089
:105A40005E806F807884C984DA84EB84FC840E9451
:105A5000461EDC01CB0184199509A609B7098C15EE
:105A60009D05AE05BF0568F40E94461EDC01CB0112
:105A700084199509A609B7098C159D05AE05BF05C2
:105A800098F3CD84DE84688179818A81A091840035
:105A9000B09185000B811C819E01215F3F4F7901F0
:105AA000C20ED31ECE14DF0409F457C0F701919142
:105AB0007F0128E013C0F894409184005091850044
:105AC000FB01808380837894FA01EA1BFB0BE017CB
:105AD000F107D8F4990FDA01215021F397FFEBCFAA
